{
  "_format": "hh-sol-artifact-1",
  "contractName": "Game",
  "sourceName": "contracts/Game.sol",
  "abi": [
    {
      "inputs": [
        {
          "internalType": "string[]",
          "name": "_characterNames",
          "type": "string[]"
        },
        {
          "internalType": "string[]",
          "name": "_characterImageURIs",
          "type": "string[]"
        },
        {
          "internalType": "uint256[]",
          "name": "_characterHPs",
          "type": "uint256[]"
        },
        {
          "internalType": "uint256[]",
          "name": "_characterAttackDamages",
          "type": "uint256[]"
        },
        {
          "internalType": "string",
          "name": "_bossName",
          "type": "string"
        },
        {
          "internalType": "string",
          "name": "_bossImageURI",
          "type": "string"
        },
        {
          "internalType": "uint256",
          "name": "_bossHp",
          "type": "uint256"
        },
        {
          "internalType": "uint256",
          "name": "_bossAttackDamage",
          "type": "uint256"
        }
      ],
      "stateMutability": "nonpayable",
      "type": "constructor"
    },
    {
      "anonymous": false,
      "inputs": [
        {
          "indexed": true,
          "internalType": "address",
          "name": "owner",
          "type": "address"
        },
        {
          "indexed": true,
          "internalType": "address",
          "name": "approved",
          "type": "address"
        },
        {
          "indexed": true,
          "internalType": "uint256",
          "name": "tokenId",
          "type": "uint256"
        }
      ],
      "name": "Approval",
      "type": "event"
    },
    {
      "anonymous": false,
      "inputs": [
        {
          "indexed": true,
          "internalType": "address",
          "name": "owner",
          "type": "address"
        },
        {
          "indexed": true,
          "internalType": "address",
          "name": "operator",
          "type": "address"
        },
        {
          "indexed": false,
          "internalType": "bool",
          "name": "approved",
          "type": "bool"
        }
      ],
      "name": "ApprovalForAll",
      "type": "event"
    },
    {
      "anonymous": false,
      "inputs": [
        {
          "indexed": true,
          "internalType": "address",
          "name": "from",
          "type": "address"
        },
        {
          "indexed": true,
          "internalType": "address",
          "name": "to",
          "type": "address"
        },
        {
          "indexed": true,
          "internalType": "uint256",
          "name": "tokenId",
          "type": "uint256"
        }
      ],
      "name": "Transfer",
      "type": "event"
    },
    {
      "inputs": [
        {
          "internalType": "address",
          "name": "to",
          "type": "address"
        },
        {
          "internalType": "uint256",
          "name": "tokenId",
          "type": "uint256"
        }
      ],
      "name": "approve",
      "outputs": [],
      "stateMutability": "nonpayable",
      "type": "function"
    },
    {
      "inputs": [],
      "name": "attackBoss",
      "outputs": [],
      "stateMutability": "nonpayable",
      "type": "function"
    },
    {
      "inputs": [
        {
          "internalType": "address",
          "name": "owner",
          "type": "address"
        }
      ],
      "name": "balanceOf",
      "outputs": [
        {
          "internalType": "uint256",
          "name": "",
          "type": "uint256"
        }
      ],
      "stateMutability": "view",
      "type": "function"
    },
    {
      "inputs": [],
      "name": "bigBoss",
      "outputs": [
        {
          "internalType": "string",
          "name": "name",
          "type": "string"
        },
        {
          "internalType": "string",
          "name": "imageURI",
          "type": "string"
        },
        {
          "internalType": "uint256",
          "name": "hp",
          "type": "uint256"
        },
        {
          "internalType": "uint256",
          "name": "maxHp",
          "type": "uint256"
        },
        {
          "internalType": "uint256",
          "name": "attackDamage",
          "type": "uint256"
        }
      ],
      "stateMutability": "view",
      "type": "function"
    },
    {
      "inputs": [],
      "name": "getAllDefaultCharacters",
      "outputs": [
        {
          "components": [
            {
              "internalType": "uint256",
              "name": "characterId",
              "type": "uint256"
            },
            {
              "internalType": "string",
              "name": "name",
              "type": "string"
            },
            {
              "internalType": "string",
              "name": "imageURI",
              "type": "string"
            },
            {
              "internalType": "uint256",
              "name": "hp",
              "type": "uint256"
            },
            {
              "internalType": "uint256",
              "name": "maxHp",
              "type": "uint256"
            },
            {
              "internalType": "uint256",
              "name": "attackDamage",
              "type": "uint256"
            }
          ],
          "internalType": "struct Game.CharacterAttributes[]",
          "name": "",
          "type": "tuple[]"
        }
      ],
      "stateMutability": "view",
      "type": "function"
    },
    {
      "inputs": [
        {
          "internalType": "uint256",
          "name": "tokenId",
          "type": "uint256"
        }
      ],
      "name": "getApproved",
      "outputs": [
        {
          "internalType": "address",
          "name": "",
          "type": "address"
        }
      ],
      "stateMutability": "view",
      "type": "function"
    },
    {
      "inputs": [
        {
          "internalType": "address",
          "name": "owner",
          "type": "address"
        }
      ],
      "name": "getMyNFT",
      "outputs": [
        {
          "components": [
            {
              "internalType": "uint256",
              "name": "characterId",
              "type": "uint256"
            },
            {
              "internalType": "string",
              "name": "name",
              "type": "string"
            },
            {
              "internalType": "string",
              "name": "imageURI",
              "type": "string"
            },
            {
              "internalType": "uint256",
              "name": "hp",
              "type": "uint256"
            },
            {
              "internalType": "uint256",
              "name": "maxHp",
              "type": "uint256"
            },
            {
              "internalType": "uint256",
              "name": "attackDamage",
              "type": "uint256"
            }
          ],
          "internalType": "struct Game.CharacterAttributes",
          "name": "",
          "type": "tuple"
        }
      ],
      "stateMutability": "view",
      "type": "function"
    },
    {
      "inputs": [],
      "name": "healNFT",
      "outputs": [],
      "stateMutability": "payable",
      "type": "function"
    },
    {
      "inputs": [
        {
          "internalType": "address",
          "name": "owner",
          "type": "address"
        },
        {
          "internalType": "address",
          "name": "operator",
          "type": "address"
        }
      ],
      "name": "isApprovedForAll",
      "outputs": [
        {
          "internalType": "bool",
          "name": "",
          "type": "bool"
        }
      ],
      "stateMutability": "view",
      "type": "function"
    },
    {
      "inputs": [
        {
          "internalType": "uint256",
          "name": "_characterId",
          "type": "uint256"
        }
      ],
      "name": "mintCharacterNFT",
      "outputs": [],
      "stateMutability": "payable",
      "type": "function"
    },
    {
      "inputs": [],
      "name": "mintNFTPrice",
      "outputs": [
        {
          "internalType": "uint256",
          "name": "",
          "type": "uint256"
        }
      ],
      "stateMutability": "view",
      "type": "function"
    },
    {
      "inputs": [],
      "name": "name",
      "outputs": [
        {
          "internalType": "string",
          "name": "",
          "type": "string"
        }
      ],
      "stateMutability": "view",
      "type": "function"
    },
    {
      "inputs": [
        {
          "internalType": "uint256",
          "name": "",
          "type": "uint256"
        }
      ],
      "name": "nftHolderAttributes",
      "outputs": [
        {
          "internalType": "uint256",
          "name": "characterId",
          "type": "uint256"
        },
        {
          "internalType": "string",
          "name": "name",
          "type": "string"
        },
        {
          "internalType": "string",
          "name": "imageURI",
          "type": "string"
        },
        {
          "internalType": "uint256",
          "name": "hp",
          "type": "uint256"
        },
        {
          "internalType": "uint256",
          "name": "maxHp",
          "type": "uint256"
        },
        {
          "internalType": "uint256",
          "name": "attackDamage",
          "type": "uint256"
        }
      ],
      "stateMutability": "view",
      "type": "function"
    },
    {
      "inputs": [
        {
          "internalType": "address",
          "name": "",
          "type": "address"
        }
      ],
      "name": "nftHolders",
      "outputs": [
        {
          "internalType": "uint256",
          "name": "",
          "type": "uint256"
        }
      ],
      "stateMutability": "view",
      "type": "function"
    },
    {
      "inputs": [
        {
          "internalType": "uint256",
          "name": "tokenId",
          "type": "uint256"
        }
      ],
      "name": "ownerOf",
      "outputs": [
        {
          "internalType": "address",
          "name": "",
          "type": "address"
        }
      ],
      "stateMutability": "view",
      "type": "function"
    },
    {
      "inputs": [
        {
          "internalType": "address",
          "name": "from",
          "type": "address"
        },
        {
          "internalType": "address",
          "name": "to",
          "type": "address"
        },
        {
          "internalType": "uint256",
          "name": "tokenId",
          "type": "uint256"
        }
      ],
      "name": "safeTransferFrom",
      "outputs": [],
      "stateMutability": "nonpayable",
      "type": "function"
    },
    {
      "inputs": [
        {
          "internalType": "address",
          "name": "from",
          "type": "address"
        },
        {
          "internalType": "address",
          "name": "to",
          "type": "address"
        },
        {
          "internalType": "uint256",
          "name": "tokenId",
          "type": "uint256"
        },
        {
          "internalType": "bytes",
          "name": "data",
          "type": "bytes"
        }
      ],
      "name": "safeTransferFrom",
      "outputs": [],
      "stateMutability": "nonpayable",
      "type": "function"
    },
    {
      "inputs": [
        {
          "internalType": "address",
          "name": "operator",
          "type": "address"
        },
        {
          "internalType": "bool",
          "name": "approved",
          "type": "bool"
        }
      ],
      "name": "setApprovalForAll",
      "outputs": [],
      "stateMutability": "nonpayable",
      "type": "function"
    },
    {
      "inputs": [
        {
          "internalType": "bytes4",
          "name": "interfaceId",
          "type": "bytes4"
        }
      ],
      "name": "supportsInterface",
      "outputs": [
        {
          "internalType": "bool",
          "name": "",
          "type": "bool"
        }
      ],
      "stateMutability": "view",
      "type": "function"
    },
    {
      "inputs": [],
      "name": "symbol",
      "outputs": [
        {
          "internalType": "string",
          "name": "",
          "type": "string"
        }
      ],
      "stateMutability": "view",
      "type": "function"
    },
    {
      "inputs": [
        {
          "internalType": "uint256",
          "name": "_tokenId",
          "type": "uint256"
        }
      ],
      "name": "tokenURI",
      "outputs": [
        {
          "internalType": "string",
          "name": "",
          "type": "string"
        }
      ],
      "stateMutability": "view",
      "type": "function"
    },
    {
      "inputs": [
        {
          "internalType": "address",
          "name": "from",
          "type": "address"
        },
        {
          "internalType": "address",
          "name": "to",
          "type": "address"
        },
        {
          "internalType": "uint256",
          "name": "tokenId",
          "type": "uint256"
        }
      ],
      "name": "transferFrom",
      "outputs": [],
      "stateMutability": "nonpayable",
      "type": "function"
    }
  ],
  "bytecode": "0x60806040523480156200001157600080fd5b5060405162004c2638038062004c26833981810160405281019062000037919062000603565b6040518060400160405280600881526020017f4865726f47616d650000000000000000000000000000000000000000000000008152506040518060400160405280600281526020017f48470000000000000000000000000000000000000000000000000000000000008152508160009080519060200190620000bb92919062000396565b508060019080519060200190620000d492919062000396565b50505060005b8851811015620002ff57600c6040518060c001604052808381526020018b848151811062000131577f4e487b7100000000000000000000000000000000000000000000000000000000600052603260045260246000fd5b602002602001015181526020018a848151811062000178577f4e487b7100000000000000000000000000000000000000000000000000000000600052603260045260246000fd5b60200260200101518152602001898481518110620001bf577f4e487b7100000000000000000000000000000000000000000000000000000000600052603260045260246000fd5b6020026020010151815260200189848151811062000206577f4e487b7100000000000000000000000000000000000000000000000000000000600052603260045260246000fd5b602002602001015181526020018884815181106200024d577f4e487b7100000000000000000000000000000000000000000000000000000000600052603260045260246000fd5b60200260200101518152509080600181540180825580915050600190039060005260206000209060060201600090919091909150600082015181600001556020820151816001019080519060200190620002a992919062000396565b506040820151816002019080519060200190620002c892919062000396565b50606082015181600301556080820151816004015560a0820151816005015550508080620002f690620008c5565b915050620000da565b506040518060a0016040528085815260200184815260200183815260200183815260200182815250600760008201518160000190805190602001906200034792919062000396565b5060208201518160010190805190602001906200036692919062000396565b506040820151816002015560608201518160030155608082015181600401559050505050505050505050620009cb565b828054620003a49062000859565b90600052602060002090601f016020900481019282620003c8576000855562000414565b82601f10620003e357805160ff191683800117855562000414565b8280016001018555821562000414579182015b8281111562000413578251825591602001919060010190620003f6565b5b50905062000423919062000427565b5090565b5b808211156200044257600081600090555060010162000428565b5090565b60006200045d620004578462000785565b6200075c565b9050808382526020820190508260005b85811015620004a15781518501620004868882620005bf565b8452602084019350602083019250506001810190506200046d565b5050509392505050565b6000620004c2620004bc84620007b4565b6200075c565b90508083825260208201905082856020860282011115620004e257600080fd5b60005b85811015620005165781620004fb8882620005ec565b845260208401935060208301925050600181019050620004e5565b5050509392505050565b6000620005376200053184620007e3565b6200075c565b9050828152602081018484840111156200055057600080fd5b6200055d84828562000823565b509392505050565b600082601f8301126200057757600080fd5b81516200058984826020860162000446565b91505092915050565b600082601f830112620005a457600080fd5b8151620005b6848260208601620004ab565b91505092915050565b600082601f830112620005d157600080fd5b8151620005e384826020860162000520565b91505092915050565b600081519050620005fd81620009b1565b92915050565b600080600080600080600080610100898b0312156200062157600080fd5b600089015167ffffffffffffffff8111156200063c57600080fd5b6200064a8b828c0162000565565b985050602089015167ffffffffffffffff8111156200066857600080fd5b620006768b828c0162000565565b975050604089015167ffffffffffffffff8111156200069457600080fd5b620006a28b828c0162000592565b965050606089015167ffffffffffffffff811115620006c057600080fd5b620006ce8b828c0162000592565b955050608089015167ffffffffffffffff811115620006ec57600080fd5b620006fa8b828c01620005bf565b94505060a089015167ffffffffffffffff8111156200071857600080fd5b620007268b828c01620005bf565b93505060c0620007398b828c01620005ec565b92505060e06200074c8b828c01620005ec565b9150509295985092959890939650565b6000620007686200077b565b90506200077682826200088f565b919050565b6000604051905090565b600067ffffffffffffffff821115620007a357620007a262000971565b5b602082029050602081019050919050565b600067ffffffffffffffff821115620007d257620007d162000971565b5b602082029050602081019050919050565b600067ffffffffffffffff82111562000801576200080062000971565b5b6200080c82620009a0565b9050602081019050919050565b6000819050919050565b60005b838110156200084357808201518184015260208101905062000826565b8381111562000853576000848401525b50505050565b600060028204905060018216806200087257607f821691505b6020821081141562000889576200088862000942565b5b50919050565b6200089a82620009a0565b810181811067ffffffffffffffff82111715620008bc57620008bb62000971565b5b80604052505050565b6000620008d28262000819565b91507fffffffffffffffffffffffffffffffffffffffffffffffffffffffffffffffff82141562000908576200090762000913565b5b600182019050919050565b7f4e487b7100000000000000000000000000000000000000000000000000000000600052601160045260246000fd5b7f4e487b7100000000000000000000000000000000000000000000000000000000600052602260045260246000fd5b7f4e487b7100000000000000000000000000000000000000000000000000000000600052604160045260246000fd5b6000601f19601f8301169050919050565b620009bc8162000819565b8114620009c857600080fd5b50565b61424b80620009db6000396000f3fe6080604052600436106101355760003560e01c8063a22cb465116100ab578063c87b56dd1161006f578063c87b56dd14610455578063d4f24c5b14610492578063da0d771b146104a9578063e1bd88c2146104b3578063e985e9c5146104f0578063f8b81ef71461052d57610135565b8063a22cb4651461037e578063a9c32679146103a7578063b88d4fde146103d6578063b953084e146103ff578063bc78fee31461042a57610135565b806342842e0e116100fd57806342842e0e146102315780636352211e1461025a57806370a08231146102975780637df124a1146102d457806395d89b411461031157806398da4c951461033c57610135565b806301ffc9a71461013a57806306fdde0314610177578063081812fc146101a2578063095ea7b3146101df57806323b872dd14610208575b600080fd5b34801561014657600080fd5b50610161600480360381019061015c9190612bd1565b610549565b60405161016e91906133c8565b60405180910390f35b34801561018357600080fd5b5061018c61062b565b60405161019991906133e3565b60405180910390f35b3480156101ae57600080fd5b506101c960048036038101906101c49190612c23565b6106bd565b6040516101d6919061333f565b60405180910390f35b3480156101eb57600080fd5b5061020660048036038101906102019190612b95565b610703565b005b34801561021457600080fd5b5061022f600480360381019061022a9190612a8f565b61081b565b005b34801561023d57600080fd5b5061025860048036038101906102539190612a8f565b61087b565b005b34801561026657600080fd5b50610281600480360381019061027c9190612c23565b61089b565b60405161028e919061333f565b60405180910390f35b3480156102a357600080fd5b506102be60048036038101906102b99190612a2a565b61094d565b6040516102cb91906136a8565b60405180910390f35b3480156102e057600080fd5b506102fb60048036038101906102f69190612a2a565b610a05565b60405161030891906136a8565b60405180910390f35b34801561031d57600080fd5b50610326610a1d565b60405161033391906133e3565b60405180910390f35b34801561034857600080fd5b50610363600480360381019061035e9190612c23565b610aaf565b604051610375969594939291906136c3565b60405180910390f35b34801561038a57600080fd5b506103a560048036038101906103a09190612b59565b610bfb565b005b3480156103b357600080fd5b506103bc610c11565b6040516103cd959493929190613405565b60405180910390f35b3480156103e257600080fd5b506103fd60048036038101906103f89190612ade565b610d45565b005b34801561040b57600080fd5b50610414610da7565b60405161042191906133a6565b60405180910390f35b34801561043657600080fd5b5061043f610f52565b60405161044c91906136a8565b60405180910390f35b34801561046157600080fd5b5061047c60048036038101906104779190612c23565b610f5e565b60405161048991906133e3565b60405180910390f35b34801561049e57600080fd5b506104a7611179565b005b6104b16112ea565b005b3480156104bf57600080fd5b506104da60048036038101906104d59190612a2a565b6113ea565b6040516104e79190613686565b60405180910390f35b3480156104fc57600080fd5b5061051760048036038101906105129190612a53565b6115a8565b60405161052491906133c8565b60405180910390f35b61054760048036038101906105429190612c23565b61163c565b005b60007f80ac58cd000000000000000000000000000000000000000000000000000000007bffffffffffffffffffffffffffffffffffffffffffffffffffffffff1916827bffffffffffffffffffffffffffffffffffffffffffffffffffffffff1916148061061457507f5b5e139f000000000000000000000000000000000000000000000000000000007bffffffffffffffffffffffffffffffffffffffffffffffffffffffff1916827bffffffffffffffffffffffffffffffffffffffffffffffffffffffff1916145b80610624575061062382611a67565b5b9050919050565b60606000805461063a906139e0565b80601f0160208091040260200160405190810160405280929190818152602001828054610666906139e0565b80156106b35780601f10610688576101008083540402835291602001916106b3565b820191906000526020600020905b81548152906001019060200180831161069657829003601f168201915b5050505050905090565b60006106c882611ad1565b6004600083815260200190815260200160002060009054906101000a900473ffffffffffffffffffffffffffffffffffffffff169050919050565b600061070e8261089b565b90508073ffffffffffffffffffffffffffffffffffffffff168373ffffffffffffffffffffffffffffffffffffffff16141561077f576040517f08c379a000000000000000000000000000000000000000000000000000000000815260040161077690613606565b60405180910390fd5b8073ffffffffffffffffffffffffffffffffffffffff1661079e611b1c565b73ffffffffffffffffffffffffffffffffffffffff1614806107cd57506107cc816107c7611b1c565b6115a8565b5b61080c576040517f08c379a0000000000000000000000000000000000000000000000000000000008152600401610803906135a6565b60405180910390fd5b6108168383611b24565b505050565b61082c610826611b1c565b82611bdd565b61086b576040517f08c379a000000000000000000000000000000000000000000000000000000000815260040161086290613646565b60405180910390fd5b610876838383611c72565b505050565b61089683838360405180602001604052806000815250610d45565b505050565b6000806002600084815260200190815260200160002060009054906101000a900473ffffffffffffffffffffffffffffffffffffffff169050600073ffffffffffffffffffffffffffffffffffffffff168173ffffffffffffffffffffffffffffffffffffffff161415610944576040517f08c379a000000000000000000000000000000000000000000000000000000000815260040161093b906135e6565b60405180910390fd5b80915050919050565b60008073ffffffffffffffffffffffffffffffffffffffff168273ffffffffffffffffffffffffffffffffffffffff1614156109be576040517f08c379a00000000000000000000000000000000000000000000000000000000081526004016109b590613586565b60405180910390fd5b600360008373ffffffffffffffffffffffffffffffffffffffff1673ffffffffffffffffffffffffffffffffffffffff168152602001908152602001600020549050919050565b600e6020528060005260406000206000915090505481565b606060018054610a2c906139e0565b80601f0160208091040260200160405190810160405280929190818152602001828054610a58906139e0565b8015610aa55780601f10610a7a57610100808354040283529160200191610aa5565b820191906000526020600020905b815481529060010190602001808311610a8857829003601f168201915b5050505050905090565b600d602052806000526040600020600091509050806000015490806001018054610ad8906139e0565b80601f0160208091040260200160405190810160405280929190818152602001828054610b04906139e0565b8015610b515780601f10610b2657610100808354040283529160200191610b51565b820191906000526020600020905b815481529060010190602001808311610b3457829003601f168201915b505050505090806002018054610b66906139e0565b80601f0160208091040260200160405190810160405280929190818152602001828054610b92906139e0565b8015610bdf5780601f10610bb457610100808354040283529160200191610bdf565b820191906000526020600020905b815481529060010190602001808311610bc257829003601f168201915b5050505050908060030154908060040154908060050154905086565b610c0d610c06611b1c565b8383611ed9565b5050565b6007806000018054610c22906139e0565b80601f0160208091040260200160405190810160405280929190818152602001828054610c4e906139e0565b8015610c9b5780601f10610c7057610100808354040283529160200191610c9b565b820191906000526020600020905b815481529060010190602001808311610c7e57829003601f168201915b505050505090806001018054610cb0906139e0565b80601f0160208091040260200160405190810160405280929190818152602001828054610cdc906139e0565b8015610d295780601f10610cfe57610100808354040283529160200191610d29565b820191906000526020600020905b815481529060010190602001808311610d0c57829003601f168201915b5050505050908060020154908060030154908060040154905085565b610d56610d50611b1c565b83611bdd565b610d95576040517f08c379a0000000000000000000000000000000000000000000000000000000008152600401610d8c90613646565b60405180910390fd5b610da184848484612046565b50505050565b6060600c805480602002602001604051908101604052809291908181526020016000905b82821015610f4957838290600052602060002090600602016040518060c001604052908160008201548152602001600182018054610e08906139e0565b80601f0160208091040260200160405190810160405280929190818152602001828054610e34906139e0565b8015610e815780601f10610e5657610100808354040283529160200191610e81565b820191906000526020600020905b815481529060010190602001808311610e6457829003601f168201915b50505050508152602001600282018054610e9a906139e0565b80601f0160208091040260200160405190810160405280929190818152602001828054610ec6906139e0565b8015610f135780601f10610ee857610100808354040283529160200191610f13565b820191906000526020600020905b815481529060010190602001808311610ef657829003601f168201915b50505050508152602001600382015481526020016004820154815260200160058201548152505081526020019060010190610dcb565b50505050905090565b67016345785d8a000081565b60606000600d60008481526020019081526020016000206040518060c001604052908160008201548152602001600182018054610f9a906139e0565b80601f0160208091040260200160405190810160405280929190818152602001828054610fc6906139e0565b80156110135780601f10610fe857610100808354040283529160200191611013565b820191906000526020600020905b815481529060010190602001808311610ff657829003601f168201915b5050505050815260200160028201805461102c906139e0565b80601f0160208091040260200160405190810160405280929190818152602001828054611058906139e0565b80156110a55780601f1061107a576101008083540402835291602001916110a5565b820191906000526020600020905b81548152906001019060200180831161108857829003601f168201915b505050505081526020016003820154815260200160048201548152602001600582015481525050905060006110dd82606001516120a2565b905060006110ee83608001516120a2565b905060006110ff8460a001516120a2565b905060006111458560200151611114896120a2565b876040015187878760405160200161113196959493929190613278565b60405160208183030381529060405261224f565b905060008160405160200161115a919061331d565b6040516020818303038152906040529050809650505050505050919050565b6000600e60003373ffffffffffffffffffffffffffffffffffffffff1673ffffffffffffffffffffffffffffffffffffffff1681526020019081526020016000205490506000600d60008381526020019081526020016000209050600081600301541161121b576040517f08c379a0000000000000000000000000000000000000000000000000000000008152600401611212906134c6565b60405180910390fd5b600060076002015411611263576040517f08c379a000000000000000000000000000000000000000000000000000000000815260040161125a90613566565b60405180910390fd5b806005015460076002015410156112845760006007600201819055506112a5565b80600501546007600201600082825461129d91906138f6565b925050819055505b600760040154816003015410156112c557600081600301819055506112e6565b6007600401548160030160008282546112de91906138f6565b925050819055505b5050565b6000600e60003373ffffffffffffffffffffffffffffffffffffffff1673ffffffffffffffffffffffffffffffffffffffff1681526020019081526020016000205490506000600d60008381526020019081526020016000209050806004015481600301541061138f576040517f08c379a000000000000000000000000000000000000000000000000000000000815260040161138690613466565b60405180910390fd5b67016345785d8a000034146113d9576040517f08c379a00000000000000000000000000000000000000000000000000000000081526004016113d090613626565b60405180910390fd5b806004015481600301819055505050565b6113f2612880565b6000600e60008473ffffffffffffffffffffffffffffffffffffffff1673ffffffffffffffffffffffffffffffffffffffff168152602001908152602001600020549050600d60008281526020019081526020016000206040518060c00160405290816000820154815260200160018201805461146e906139e0565b80601f016020809104026020016040519081016040528092919081815260200182805461149a906139e0565b80156114e75780601f106114bc576101008083540402835291602001916114e7565b820191906000526020600020905b8154815290600101906020018083116114ca57829003601f168201915b50505050508152602001600282018054611500906139e0565b80601f016020809104026020016040519081016040528092919081815260200182805461152c906139e0565b80156115795780601f1061154e57610100808354040283529160200191611579565b820191906000526020600020905b81548152906001019060200180831161155c57829003601f168201915b505050505081526020016003820154815260200160048201548152602001600582015481525050915050919050565b6000600560008473ffffffffffffffffffffffffffffffffffffffff1673ffffffffffffffffffffffffffffffffffffffff16815260200190815260200160002060008373ffffffffffffffffffffffffffffffffffffffff1673ffffffffffffffffffffffffffffffffffffffff16815260200190815260200160002060009054906101000a900460ff16905092915050565b60006116473361094d565b14611687576040517f08c379a000000000000000000000000000000000000000000000000000000000815260040161167e90613666565b60405180910390fd5b67016345785d8a000034146116d1576040517f08c379a00000000000000000000000000000000000000000000000000000000081526004016116c890613506565b60405180910390fd5b6116db60066123d9565b60006116e760066123ef565b90506116f333826123fd565b6040518060c00160405280838152602001600c848154811061173e577f4e487b7100000000000000000000000000000000000000000000000000000000600052603260045260246000fd5b9060005260206000209060060201600101805461175a906139e0565b80601f0160208091040260200160405190810160405280929190818152602001828054611786906139e0565b80156117d35780601f106117a8576101008083540402835291602001916117d3565b820191906000526020600020905b8154815290600101906020018083116117b657829003601f168201915b50505050508152602001600c8481548110611817577f4e487b7100000000000000000000000000000000000000000000000000000000600052603260045260246000fd5b90600052602060002090600602016002018054611833906139e0565b80601f016020809104026020016040519081016040528092919081815260200182805461185f906139e0565b80156118ac5780601f10611881576101008083540402835291602001916118ac565b820191906000526020600020905b81548152906001019060200180831161188f57829003601f168201915b50505050508152602001600c84815481106118f0577f4e487b7100000000000000000000000000000000000000000000000000000000600052603260045260246000fd5b9060005260206000209060060201600301548152602001600c8481548110611941577f4e487b7100000000000000000000000000000000000000000000000000000000600052603260045260246000fd5b9060005260206000209060060201600401548152602001600c8481548110611992577f4e487b7100000000000000000000000000000000000000000000000000000000600052603260045260246000fd5b906000526020600020906006020160050154815250600d60008381526020019081526020016000206000820151816000015560208201518160010190805190602001906119e09291906128b6565b5060408201518160020190805190602001906119fd9291906128b6565b50606082015181600301556080820151816004015560a0820151816005015590505080600e60003373ffffffffffffffffffffffffffffffffffffffff1673ffffffffffffffffffffffffffffffffffffffff168152602001908152602001600020819055505050565b60007f01ffc9a7000000000000000000000000000000000000000000000000000000007bffffffffffffffffffffffffffffffffffffffffffffffffffffffff1916827bffffffffffffffffffffffffffffffffffffffffffffffffffffffff1916149050919050565b611ada8161241b565b611b19576040517f08c379a0000000000000000000000000000000000000000000000000000000008152600401611b10906135e6565b60405180910390fd5b50565b600033905090565b816004600083815260200190815260200160002060006101000a81548173ffffffffffffffffffffffffffffffffffffffff021916908373ffffffffffffffffffffffffffffffffffffffff160217905550808273ffffffffffffffffffffffffffffffffffffffff16611b978361089b565b73ffffffffffffffffffffffffffffffffffffffff167f8c5be1e5ebec7d5bd14f71427d1e84f3dd0314c0f7b2291e5b200ac8c7c3b92560405160405180910390a45050565b600080611be98361089b565b90508073ffffffffffffffffffffffffffffffffffffffff168473ffffffffffffffffffffffffffffffffffffffff161480611c2b5750611c2a81856115a8565b5b80611c6957508373ffffffffffffffffffffffffffffffffffffffff16611c51846106bd565b73ffffffffffffffffffffffffffffffffffffffff16145b91505092915050565b8273ffffffffffffffffffffffffffffffffffffffff16611c928261089b565b73ffffffffffffffffffffffffffffffffffffffff1614611ce8576040517f08c379a0000000000000000000000000000000000000000000000000000000008152600401611cdf906134a6565b60405180910390fd5b600073ffffffffffffffffffffffffffffffffffffffff168273ffffffffffffffffffffffffffffffffffffffff161415611d58576040517f08c379a0000000000000000000000000000000000000000000000000000000008152600401611d4f90613526565b60405180910390fd5b611d63838383612487565b611d6e600082611b24565b6001600360008573ffffffffffffffffffffffffffffffffffffffff1673ffffffffffffffffffffffffffffffffffffffff1681526020019081526020016000206000828254611dbe91906138f6565b925050819055506001600360008473ffffffffffffffffffffffffffffffffffffffff1673ffffffffffffffffffffffffffffffffffffffff1681526020019081526020016000206000828254611e159190613815565b92505081905550816002600083815260200190815260200160002060006101000a81548173ffffffffffffffffffffffffffffffffffffffff021916908373ffffffffffffffffffffffffffffffffffffffff160217905550808273ffffffffffffffffffffffffffffffffffffffff168473ffffffffffffffffffffffffffffffffffffffff167fddf252ad1be2c89b69c2b068fc378daa952ba7f163c4a11628f55a4df523b3ef60405160405180910390a4611ed483838361248c565b505050565b8173ffffffffffffffffffffffffffffffffffffffff168373ffffffffffffffffffffffffffffffffffffffff161415611f48576040517f08c379a0000000000000000000000000000000000000000000000000000000008152600401611f3f90613546565b60405180910390fd5b80600560008573ffffffffffffffffffffffffffffffffffffffff1673ffffffffffffffffffffffffffffffffffffffff16815260200190815260200160002060008473ffffffffffffffffffffffffffffffffffffffff1673ffffffffffffffffffffffffffffffffffffffff16815260200190815260200160002060006101000a81548160ff0219169083151502179055508173ffffffffffffffffffffffffffffffffffffffff168373ffffffffffffffffffffffffffffffffffffffff167f17307eab39ab6107e8899845ad3d59bd9653f200f220920489ca2b5937696c318360405161203991906133c8565b60405180910390a3505050565b612051848484611c72565b61205d84848484612491565b61209c576040517f08c379a000000000000000000000000000000000000000000000000000000000815260040161209390613486565b60405180910390fd5b50505050565b606060008214156120ea576040518060400160405280600181526020017f3000000000000000000000000000000000000000000000000000000000000000815250905061224a565b600082905060005b6000821461211c57808061210590613a43565b915050600a82612115919061386b565b91506120f2565b60008167ffffffffffffffff81111561215e577f4e487b7100000000000000000000000000000000000000000000000000000000600052604160045260246000fd5b6040519080825280601f01601f1916602001820160405280156121905781602001600182028036833780820191505090505b5090505b60008514612243576001826121a991906138f6565b9150600a856121b89190613a8c565b60306121c49190613815565b60f81b818381518110612200577f4e487b7100000000000000000000000000000000000000000000000000000000600052603260045260246000fd5b60200101907effffffffffffffffffffffffffffffffffffffffffffffffffffffffffffff1916908160001a905350600a8561223c919061386b565b9450612194565b8093505050505b919050565b6060600082511415612272576040518060200160405280600081525090506123d4565b60006040518060600160405280604081526020016141d660409139905060006003600285516122a19190613815565b6122ab919061386b565b60046122b7919061389c565b67ffffffffffffffff8111156122f6577f4e487b7100000000000000000000000000000000000000000000000000000000600052604160045260246000fd5b6040519080825280601f01601f1916602001820160405280156123285781602001600182028036833780820191505090505b509050600182016020820185865187015b80821015612394576003820191508151603f8160121c168501518453600184019350603f81600c1c168501518453600184019350603f8160061c168501518453600184019350603f8116850151845360018401935050612339565b50506003865106600181146123b057600281146123c3576123cb565b603d6001830353603d60028303536123cb565b603d60018303535b50505080925050505b919050565b6001816000016000828254019250508190555050565b600081600001549050919050565b612417828260405180602001604052806000815250612628565b5050565b60008073ffffffffffffffffffffffffffffffffffffffff166002600084815260200190815260200160002060009054906101000a900473ffffffffffffffffffffffffffffffffffffffff1673ffffffffffffffffffffffffffffffffffffffff1614159050919050565b505050565b505050565b60006124b28473ffffffffffffffffffffffffffffffffffffffff16612683565b1561261b578373ffffffffffffffffffffffffffffffffffffffff1663150b7a026124db611b1c565b8786866040518563ffffffff1660e01b81526004016124fd949392919061335a565b602060405180830381600087803b15801561251757600080fd5b505af192505050801561254857506040513d601f19601f820116820180604052508101906125459190612bfa565b60015b6125cb573d8060008114612578576040519150601f19603f3d011682016040523d82523d6000602084013e61257d565b606091505b506000815114156125c3576040517f08c379a00000000000000000000000000000000000000000000000000000000081526004016125ba90613486565b60405180910390fd5b805181602001fd5b63150b7a0260e01b7bffffffffffffffffffffffffffffffffffffffffffffffffffffffff1916817bffffffffffffffffffffffffffffffffffffffffffffffffffffffff191614915050612620565b600190505b949350505050565b61263283836126a6565b61263f6000848484612491565b61267e576040517f08c379a000000000000000000000000000000000000000000000000000000000815260040161267590613486565b60405180910390fd5b505050565b6000808273ffffffffffffffffffffffffffffffffffffffff163b119050919050565b600073ffffffffffffffffffffffffffffffffffffffff168273ffffffffffffffffffffffffffffffffffffffff161415612716576040517f08c379a000000000000000000000000000000000000000000000000000000000815260040161270d906135c6565b60405180910390fd5b61271f8161241b565b1561275f576040517f08c379a0000000000000000000000000000000000000000000000000000000008152600401612756906134e6565b60405180910390fd5b61276b60008383612487565b6001600360008473ffffffffffffffffffffffffffffffffffffffff1673ffffffffffffffffffffffffffffffffffffffff16815260200190815260200160002060008282546127bb9190613815565b92505081905550816002600083815260200190815260200160002060006101000a81548173ffffffffffffffffffffffffffffffffffffffff021916908373ffffffffffffffffffffffffffffffffffffffff160217905550808273ffffffffffffffffffffffffffffffffffffffff16600073ffffffffffffffffffffffffffffffffffffffff167fddf252ad1be2c89b69c2b068fc378daa952ba7f163c4a11628f55a4df523b3ef60405160405180910390a461287c6000838361248c565b5050565b6040518060c001604052806000815260200160608152602001606081526020016000815260200160008152602001600081525090565b8280546128c2906139e0565b90600052602060002090601f0160209004810192826128e4576000855561292b565b82601f106128fd57805160ff191683800117855561292b565b8280016001018555821561292b579182015b8281111561292a57825182559160200191906001019061290f565b5b509050612938919061293c565b5090565b5b8082111561295557600081600090555060010161293d565b5090565b600061296c61296784613757565b613732565b90508281526020810184848401111561298457600080fd5b61298f84828561399e565b509392505050565b6000813590506129a681614179565b92915050565b6000813590506129bb81614190565b92915050565b6000813590506129d0816141a7565b92915050565b6000815190506129e5816141a7565b92915050565b600082601f8301126129fc57600080fd5b8135612a0c848260208601612959565b91505092915050565b600081359050612a24816141be565b92915050565b600060208284031215612a3c57600080fd5b6000612a4a84828501612997565b91505092915050565b60008060408385031215612a6657600080fd5b6000612a7485828601612997565b9250506020612a8585828601612997565b9150509250929050565b600080600060608486031215612aa457600080fd5b6000612ab286828701612997565b9350506020612ac386828701612997565b9250506040612ad486828701612a15565b9150509250925092565b60008060008060808587031215612af457600080fd5b6000612b0287828801612997565b9450506020612b1387828801612997565b9350506040612b2487828801612a15565b925050606085013567ffffffffffffffff811115612b4157600080fd5b612b4d878288016129eb565b91505092959194509250565b60008060408385031215612b6c57600080fd5b6000612b7a85828601612997565b9250506020612b8b858286016129ac565b9150509250929050565b60008060408385031215612ba857600080fd5b6000612bb685828601612997565b9250506020612bc785828601612a15565b9150509250929050565b600060208284031215612be357600080fd5b6000612bf1848285016129c1565b91505092915050565b600060208284031215612c0c57600080fd5b6000612c1a848285016129d6565b91505092915050565b600060208284031215612c3557600080fd5b6000612c4384828501612a15565b91505092915050565b6000612c58838361313a565b905092915050565b612c698161392a565b82525050565b6000612c7a82613798565b612c8481856137c6565b935083602082028501612c9685613788565b8060005b85811015612cd25784840389528151612cb38582612c4c565b9450612cbe836137b9565b925060208a01995050600181019050612c9a565b50829750879550505050505092915050565b612ced8161393c565b82525050565b6000612cfe826137a3565b612d0881856137d7565b9350612d188185602086016139ad565b612d2181613b79565b840191505092915050565b6000612d37826137ae565b612d4181856137e8565b9350612d518185602086016139ad565b612d5a81613b79565b840191505092915050565b6000612d70826137ae565b612d7a81856137f9565b9350612d8a8185602086016139ad565b612d9381613b79565b840191505092915050565b6000612da9826137ae565b612db3818561380a565b9350612dc38185602086016139ad565b80840191505092915050565b6000612ddc601b836137f9565b9150612de782613b8a565b602082019050919050565b6000612dff600b8361380a565b9150612e0a82613bb3565b600b82019050919050565b6000612e226032836137f9565b9150612e2d82613bdc565b604082019050919050565b6000612e456025836137f9565b9150612e5082613c2b565b604082019050919050565b6000612e68600e836137f9565b9150612e7382613c7a565b602082019050919050565b6000612e8b601c836137f9565b9150612e9682613ca3565b602082019050919050565b6000612eae600e8361380a565b9150612eb982613ccc565b600e82019050919050565b6000612ed16031836137f9565b9150612edc82613cf5565b604082019050919050565b6000612ef46024836137f9565b9150612eff82613d44565b604082019050919050565b6000612f176019836137f9565b9150612f2282613d93565b602082019050919050565b6000612f3a600c836137f9565b9150612f4582613dbc565b602082019050919050565b6000612f5d6029836137f9565b9150612f6882613de5565b604082019050919050565b6000612f8060628361380a565b9150612f8b82613e34565b606282019050919050565b6000612fa360048361380a565b9150612fae82613ecf565b600482019050919050565b6000612fc6603e836137f9565b9150612fd182613ef8565b604082019050919050565b6000612fe96020836137f9565b9150612ff482613f47565b602082019050919050565b600061300c600a8361380a565b915061301782613f70565b600a82019050919050565b600061302f6018836137f9565b915061303a82613f99565b602082019050919050565b60006130526021836137f9565b915061305d82613fc2565b604082019050919050565b6000613075601d8361380a565b915061308082614011565b601d82019050919050565b60006130986017836137f9565b91506130a38261403a565b602082019050919050565b60006130bb603d8361380a565b91506130c682614063565b603d82019050919050565b60006130de602d8361380a565b91506130e9826140b2565b602d82019050919050565b6000613101602e836137f9565b915061310c82614101565b604082019050919050565b60006131246017836137f9565b915061312f82614150565b602082019050919050565b600060c083016000830151613152600086018261325a565b506020830151848203602086015261316a8282612d2c565b915050604083015184820360408601526131848282612d2c565b9150506060830151613199606086018261325a565b5060808301516131ac608086018261325a565b5060a08301516131bf60a086018261325a565b508091505092915050565b600060c0830160008301516131e2600086018261325a565b50602083015184820360208601526131fa8282612d2c565b915050604083015184820360408601526132148282612d2c565b9150506060830151613229606086018261325a565b50608083015161323c608086018261325a565b5060a083015161324f60a086018261325a565b508091505092915050565b61326381613994565b82525050565b61327281613994565b82525050565b600061328382612fff565b915061328f8289612d9e565b915061329a82612df2565b91506132a68288612d9e565b91506132b182612f73565b91506132bd8287612d9e565b91506132c8826130ae565b91506132d48286612d9e565b91506132df82612ea1565b91506132eb8285612d9e565b91506132f6826130d1565b91506133028284612d9e565b915061330d82612f96565b9150819050979650505050505050565b600061332882613068565b91506133348284612d9e565b915081905092915050565b60006020820190506133546000830184612c60565b92915050565b600060808201905061336f6000830187612c60565b61337c6020830186612c60565b6133896040830185613269565b818103606083015261339b8184612cf3565b905095945050505050565b600060208201905081810360008301526133c08184612c6f565b905092915050565b60006020820190506133dd6000830184612ce4565b92915050565b600060208201905081810360008301526133fd8184612d65565b905092915050565b600060a082019050818103600083015261341f8188612d65565b905081810360208301526134338187612d65565b90506134426040830186613269565b61344f6060830185613269565b61345c6080830184613269565b9695505050505050565b6000602082019050818103600083015261347f81612dcf565b9050919050565b6000602082019050818103600083015261349f81612e15565b9050919050565b600060208201905081810360008301526134bf81612e38565b9050919050565b600060208201905081810360008301526134df81612e5b565b9050919050565b600060208201905081810360008301526134ff81612e7e565b9050919050565b6000602082019050818103600083015261351f81612ec4565b9050919050565b6000602082019050818103600083015261353f81612ee7565b9050919050565b6000602082019050818103600083015261355f81612f0a565b9050919050565b6000602082019050818103600083015261357f81612f2d565b9050919050565b6000602082019050818103600083015261359f81612f50565b9050919050565b600060208201905081810360008301526135bf81612fb9565b9050919050565b600060208201905081810360008301526135df81612fdc565b9050919050565b600060208201905081810360008301526135ff81613022565b9050919050565b6000602082019050818103600083015261361f81613045565b9050919050565b6000602082019050818103600083015261363f8161308b565b9050919050565b6000602082019050818103600083015261365f816130f4565b9050919050565b6000602082019050818103600083015261367f81613117565b9050919050565b600060208201905081810360008301526136a081846131ca565b905092915050565b60006020820190506136bd6000830184613269565b92915050565b600060c0820190506136d86000830189613269565b81810360208301526136ea8188612d65565b905081810360408301526136fe8187612d65565b905061370d6060830186613269565b61371a6080830185613269565b61372760a0830184613269565b979650505050505050565b600061373c61374d565b90506137488282613a12565b919050565b6000604051905090565b600067ffffffffffffffff82111561377257613771613b4a565b5b61377b82613b79565b9050602081019050919050565b6000819050602082019050919050565b600081519050919050565b600081519050919050565b600081519050919050565b6000602082019050919050565b600082825260208201905092915050565b600082825260208201905092915050565b600082825260208201905092915050565b600082825260208201905092915050565b600081905092915050565b600061382082613994565b915061382b83613994565b9250827fffffffffffffffffffffffffffffffffffffffffffffffffffffffffffffffff038211156138605761385f613abd565b5b828201905092915050565b600061387682613994565b915061388183613994565b92508261389157613890613aec565b5b828204905092915050565b60006138a782613994565b91506138b283613994565b9250817fffffffffffffffffffffffffffffffffffffffffffffffffffffffffffffffff04831182151516156138eb576138ea613abd565b5b828202905092915050565b600061390182613994565b915061390c83613994565b92508282101561391f5761391e613abd565b5b828203905092915050565b600061393582613974565b9050919050565b60008115159050919050565b60007fffffffff0000000000000000000000000000000000000000000000000000000082169050919050565b600073ffffffffffffffffffffffffffffffffffffffff82169050919050565b6000819050919050565b82818337600083830152505050565b60005b838110156139cb5780820151818401526020810190506139b0565b838111156139da576000848401525b50505050565b600060028204905060018216806139f857607f821691505b60208210811415613a0c57613a0b613b1b565b5b50919050565b613a1b82613b79565b810181811067ffffffffffffffff82111715613a3a57613a39613b4a565b5b80604052505050565b6000613a4e82613994565b91507fffffffffffffffffffffffffffffffffffffffffffffffffffffffffffffffff821415613a8157613a80613abd565b5b600182019050919050565b6000613a9782613994565b9150613aa283613994565b925082613ab257613ab1613aec565b5b828206905092915050565b7f4e487b7100000000000000000000000000000000000000000000000000000000600052601160045260246000fd5b7f4e487b7100000000000000000000000000000000000000000000000000000000600052601260045260246000fd5b7f4e487b7100000000000000000000000000000000000000000000000000000000600052602260045260246000fd5b7f4e487b7100000000000000000000000000000000000000000000000000000000600052604160045260246000fd5b6000601f19601f8301169050919050565b7f506c6179657220697320616c7265616479206174206d61782068700000000000600082015250565b7f202d2d204e465420233a20000000000000000000000000000000000000000000600082015250565b7f4552433732313a207472616e7366657220746f206e6f6e20455243373231526560008201527f63656976657220696d706c656d656e7465720000000000000000000000000000602082015250565b7f4552433732313a207472616e736665722066726f6d20696e636f72726563742060008201527f6f776e6572000000000000000000000000000000000000000000000000000000602082015250565b7f506c617965722069732064656164000000000000000000000000000000000000600082015250565b7f4552433732313a20746f6b656e20616c7265616479206d696e74656400000000600082015250565b7f2c20226d61785f76616c7565223a000000000000000000000000000000000000600082015250565b7f596f75206d7573742070617920746865207072696365206f66206d696e74696e60008201527f67206120636861726163746572204e4654000000000000000000000000000000602082015250565b7f4552433732313a207472616e7366657220746f20746865207a65726f2061646460008201527f7265737300000000000000000000000000000000000000000000000000000000602082015250565b7f4552433732313a20617070726f766520746f2063616c6c657200000000000000600082015250565b7f426f737320697320646561640000000000000000000000000000000000000000600082015250565b7f4552433732313a2061646472657373207a65726f206973206e6f74206120766160008201527f6c6964206f776e65720000000000000000000000000000000000000000000000602082015250565b7f222c20226465736372697074696f6e223a20225468697320697320616e204e4660008201527f542074686174206c6574732070656f706c6520706c617920696e20746865206760208201527f616d6520456d70616e6164617320426174746c6521222c2022696d616765223a60408201527f2022000000000000000000000000000000000000000000000000000000000000606082015250565b7f7d205d7d00000000000000000000000000000000000000000000000000000000600082015250565b7f4552433732313a20617070726f76652063616c6c6572206973206e6f7420746f60008201527f6b656e206f776e6572206e6f7220617070726f76656420666f7220616c6c0000602082015250565b7f4552433732313a206d696e7420746f20746865207a65726f2061646472657373600082015250565b7f7b226e616d65223a202200000000000000000000000000000000000000000000600082015250565b7f4552433732313a20696e76616c696420746f6b656e2049440000000000000000600082015250565b7f4552433732313a20617070726f76616c20746f2063757272656e74206f776e6560008201527f7200000000000000000000000000000000000000000000000000000000000000602082015250565b7f646174613a6170706c69636174696f6e2f6a736f6e3b6261736536342c000000600082015250565b7f4865616c20707269636520697320302e31206574686572000000000000000000600082015250565b7f222c202261747472696275746573223a205b207b202274726169745f7479706560008201527f223a20224865616c746820506f696e7473222c202276616c7565223a20000000602082015250565b7f7d2c207b202274726169745f74797065223a202241747461636b2044616d616760008201527f65222c202276616c7565223a2000000000000000000000000000000000000000602082015250565b7f4552433732313a2063616c6c6572206973206e6f7420746f6b656e206f776e6560008201527f72206e6f7220617070726f766564000000000000000000000000000000000000602082015250565b7f596f7520616c7265616479206861766520616e204e4654000000000000000000600082015250565b6141828161392a565b811461418d57600080fd5b50565b6141998161393c565b81146141a457600080fd5b50565b6141b081613948565b81146141bb57600080fd5b50565b6141c781613994565b81146141d257600080fd5b5056fe4142434445464748494a4b4c4d4e4f505152535455565758595a6162636465666768696a6b6c6d6e6f707172737475767778797a303132333435363738392b2fa2646970667358221220eadc4045ce83684e1c24b962b1756aec04bf922286b0041cfd5c4be14183a98064736f6c63430008030033",
  "linkReferences": {},
  "deployedLinkReferences": {}
}